{
  "_format": "hh-sol-artifact-1",
  "contractName": "WavePortal",
  "sourceName": "contracts/WavePortal.sol",
  "abi": [
    {
      "inputs": [],
      "stateMutability": "nonpayable",
      "type": "constructor"
    },
    {
      "inputs": [],
      "name": "getTotalWaves",
      "outputs": [
        {
          "internalType": "uint256",
          "name": "",
          "type": "uint256"
        }
      ],
      "stateMutability": "view",
      "type": "function"
    },
    {
      "inputs": [],
      "name": "listWaveAddresses",
      "outputs": [],
      "stateMutability": "view",
      "type": "function"
    },
    {
      "inputs": [],
      "name": "wave",
      "outputs": [],
      "stateMutability": "nonpayable",
      "type": "function"
    }
  ],
  "bytecode": "0x608060405234801561001057600080fd5b506100596040518060400160405280600b81526020017f776861646475702074686f00000000000000000000000000000000000000000081525061005e60201b6104451760201c565b6101e1565b6100fa81604051602401610072919061015f565b6040516020818303038152906040527f41304fac000000000000000000000000000000000000000000000000000000007bffffffffffffffffffffffffffffffffffffffffffffffffffffffff19166020820180517bffffffffffffffffffffffffffffffffffffffffffffffffffffffff83818316178352505050506100fd60201b60201c565b50565b60008151905060006a636f6e736f6c652e6c6f679050602083016000808483855afa5050505050565b600061013182610181565b61013b818561018c565b935061014b81856020860161019d565b610154816101d0565b840191505092915050565b600060208201905081810360008301526101798184610126565b905092915050565b600081519050919050565b600082825260208201905092915050565b60005b838110156101bb5780820151818401526020810190506101a0565b838111156101ca576000848401525b50505050565b6000601f19601f8301169050919050565b6109b0806101f06000396000f3fe608060405234801561001057600080fd5b50600436106100415760003560e01c80636e7e557d146100465780636fe15b44146100505780639a2cdc081461005a575b600080fd5b61004e610078565b005b61005861029f565b005b6100626103fa565b60405161006f91906107f5565b60405180910390f35b6100b66040518060400160405280601a81526020017f2d2d2d2d2d2d2d2d2d2d2d2d2d2d2d2d2d2d2d2d2d2d2d2d2d2d000000000000815250610445565b6100f46040518060400160405280600781526020017f5761766572733a00000000000000000000000000000000000000000000000000815250610445565b60005b60018054905081101561025e5761024b6040518060400160405280600681526020017f25733a202573000000000000000000000000000000000000000000000000000081525060018381548110610177577f4e487b7100000000000000000000000000000000000000000000000000000000600052603260045260246000fd5b9060005260206000200160009054906101000a900473ffffffffffffffffffffffffffffffffffffffff1660026000600186815481106101e0577f4e487b7100000000000000000000000000000000000000000000000000000000600052603260045260246000fd5b9060005260206000200160009054906101000a900473ffffffffffffffffffffffffffffffffffffffff1673ffffffffffffffffffffffffffffffffffffffff1673ffffffffffffffffffffffffffffffffffffffff168152602001908152602001600020546104de565b8080610256906108f1565b9150506100f7565b5061029d6040518060400160405280601a81526020017f2d2d2d2d2d2d2d2d2d2d2d2d2d2d2d2d2d2d2d2d2d2d2d2d2d2d000000000000815250610445565b565b60016000808282546102b1919061082c565b925050819055506000600260003373ffffffffffffffffffffffffffffffffffffffff1673ffffffffffffffffffffffffffffffffffffffff168152602001908152602001600020541415610364576001339080600181540180825580915050600190039060005260206000200160009091909190916101000a81548173ffffffffffffffffffffffffffffffffffffffff021916908373ffffffffffffffffffffffffffffffffffffffff1602179055505b600260003373ffffffffffffffffffffffffffffffffffffffff1673ffffffffffffffffffffffffffffffffffffffff16815260200190815260200160002060008154809291906103b4906108f1565b91905055506103f86040518060400160405280601281526020017f25732068617320776176656420627275682100000000000000000000000000008152503361057d565b565b600061043d6040518060400160405280601681526020017f5765206861766520256420746f74616c20776176657300000000000000000000815250600054610619565b600054905090565b6104db816040516024016104599190610735565b6040516020818303038152906040527f41304fac000000000000000000000000000000000000000000000000000000007bffffffffffffffffffffffffffffffffffffffffffffffffffffffff19166020820180517bffffffffffffffffffffffffffffffffffffffffffffffffffffffff83818316178352505050506106b5565b50565b6105788383836040516024016104f693929190610787565b6040516020818303038152906040527f07c81217000000000000000000000000000000000000000000000000000000007bffffffffffffffffffffffffffffffffffffffffffffffffffffffff19166020820180517bffffffffffffffffffffffffffffffffffffffffffffffffffffffff83818316178352505050506106b5565b505050565b6106158282604051602401610593929190610757565b6040516020818303038152906040527f319af333000000000000000000000000000000000000000000000000000000007bffffffffffffffffffffffffffffffffffffffffffffffffffffffff19166020820180517bffffffffffffffffffffffffffffffffffffffffffffffffffffffff83818316178352505050506106b5565b5050565b6106b1828260405160240161062f9291906107c5565b6040516020818303038152906040527f9710a9d0000000000000000000000000000000000000000000000000000000007bffffffffffffffffffffffffffffffffffffffffffffffffffffffff19166020820180517bffffffffffffffffffffffffffffffffffffffffffffffffffffffff83818316178352505050506106b5565b5050565b60008151905060006a636f6e736f6c652e6c6f679050602083016000808483855afa5050505050565b6106e781610882565b82525050565b60006106f882610810565b610702818561081b565b93506107128185602086016108be565b61071b81610969565b840191505092915050565b61072f816108b4565b82525050565b6000602082019050818103600083015261074f81846106ed565b905092915050565b6000604082019050818103600083015261077181856106ed565b905061078060208301846106de565b9392505050565b600060608201905081810360008301526107a181866106ed565b90506107b060208301856106de565b6107bd6040830184610726565b949350505050565b600060408201905081810360008301526107df81856106ed565b90506107ee6020830184610726565b9392505050565b600060208201905061080a6000830184610726565b92915050565b600081519050919050565b600082825260208201905092915050565b6000610837826108b4565b9150610842836108b4565b9250827fffffffffffffffffffffffffffffffffffffffffffffffffffffffffffffffff038211156108775761087661093a565b5b828201905092915050565b600061088d82610894565b9050919050565b600073ffffffffffffffffffffffffffffffffffffffff82169050919050565b6000819050919050565b60005b838110156108dc5780820151818401526020810190506108c1565b838111156108eb576000848401525b50505050565b60006108fc826108b4565b91507fffffffffffffffffffffffffffffffffffffffffffffffffffffffffffffffff82141561092f5761092e61093a565b5b600182019050919050565b7f4e487b7100000000000000000000000000000000000000000000000000000000600052601160045260246000fd5b6000601f19601f830116905091905056fea2646970667358221220fd6141ceb80b42bed6284b284668f224f9b34e68a744618a16eca7dc78f6dbc464736f6c63430008040033",
  "linkReferences": {},
  "deployedLinkReferences": {}
}