{
  "_format": "hh-sol-artifact-1",
  "contractName": "WavePortal",
  "sourceName": "contracts/WavePortal.sol",
  "abi": [
    {
      "inputs": [],
      "stateMutability": "nonpayable",
      "type": "constructor"
    },
    {
      "anonymous": false,
      "inputs": [
        {
          "indexed": true,
          "internalType": "address",
          "name": "waver",
          "type": "address"
        },
        {
          "indexed": false,
          "internalType": "string",
          "name": "message",
          "type": "string"
        },
        {
          "indexed": false,
          "internalType": "uint256",
          "name": "timestamp",
          "type": "uint256"
        }
      ],
      "name": "NewWave",
      "type": "event"
    },
    {
      "inputs": [],
      "name": "getAllWaves",
      "outputs": [
        {
          "components": [
            {
              "internalType": "address",
              "name": "waver",
              "type": "address"
            },
            {
              "internalType": "string",
              "name": "message",
              "type": "string"
            },
            {
              "internalType": "uint256",
              "name": "timestamp",
              "type": "uint256"
            }
          ],
          "internalType": "struct WavePortal.Wave[]",
          "name": "",
          "type": "tuple[]"
        }
      ],
      "stateMutability": "view",
      "type": "function"
    },
    {
      "inputs": [],
      "name": "getTotalWaves",
      "outputs": [
        {
          "internalType": "uint256",
          "name": "",
          "type": "uint256"
        }
      ],
      "stateMutability": "view",
      "type": "function"
    },
    {
      "inputs": [],
      "name": "listWaveAddresses",
      "outputs": [],
      "stateMutability": "view",
      "type": "function"
    },
    {
      "inputs": [
        {
          "internalType": "string",
          "name": "_message",
          "type": "string"
        }
      ],
      "name": "wave",
      "outputs": [],
      "stateMutability": "nonpayable",
      "type": "function"
    }
  ],
  "bytecode": "0x60806040523480156200001157600080fd5b506200005d6040518060400160405280600b81526020017f776861646475702074686f0000000000000000000000000000000000000000008152506200006360201b620006ef1760201c565b620001f7565b62000103816040516024016200007a919062000170565b6040516020818303038152906040527f41304fac000000000000000000000000000000000000000000000000000000007bffffffffffffffffffffffffffffffffffffffffffffffffffffffff19166020820180517bffffffffffffffffffffffffffffffffffffffffffffffffffffffff83818316178352505050506200010660201b60201c565b50565b60008151905060006a636f6e736f6c652e6c6f679050602083016000808483855afa5050505050565b60006200013c8262000194565b6200014881856200019f565b93506200015a818560208601620001b0565b6200016581620001e6565b840191505092915050565b600060208201905081810360008301526200018c81846200012f565b905092915050565b600081519050919050565b600082825260208201905092915050565b60005b83811015620001d0578082015181840152602081019050620001b3565b83811115620001e0576000848401525b50505050565b6000601f19601f8301169050919050565b61108080620002076000396000f3fe608060405234801561001057600080fd5b506004361061004c5760003560e01c8063449d46c0146100515780636e7e557d1461006d5780639a2cdc0814610077578063bd43a90814610095575b600080fd5b61006b60048036038101906100669190610a96565b6100b3565b005b61007561032c565b005b61007f610553565b60405161008c9190610d55565b60405180910390f35b61009d61059e565b6040516100aa9190610c5e565b60405180910390f35b60016000808282546100c59190610e2c565b92505081905550600260405180606001604052803373ffffffffffffffffffffffffffffffffffffffff16815260200183815260200142815250908060018154018082558091505060019003906000526020600020906003020160009091909190915060008201518160000160006101000a81548173ffffffffffffffffffffffffffffffffffffffff021916908373ffffffffffffffffffffffffffffffffffffffff160217905550602082015181600101908051906020019061018b92919061098b565b506040820151816002015550503373ffffffffffffffffffffffffffffffffffffffff167f6728ef66814a55b797863bf8ffcd954b19cbca4ed4f0e6cf04c980705fd82c3682426040516101e0929190610d25565b60405180910390a26000600360003373ffffffffffffffffffffffffffffffffffffffff1673ffffffffffffffffffffffffffffffffffffffff168152602001908152602001600020541415610294576001339080600181540180825580915050600190039060005260206000200160009091909190916101000a81548173ffffffffffffffffffffffffffffffffffffffff021916908373ffffffffffffffffffffffffffffffffffffffff1602179055505b600360003373ffffffffffffffffffffffffffffffffffffffff1673ffffffffffffffffffffffffffffffffffffffff16815260200190815260200160002060008154809291906102e490610f63565b91905055506103296040518060400160405280601d81526020017f25732068617320776176656420736179696e672025732c2062727568210000008152503383610788565b50565b61036a6040518060400160405280601a81526020017f2d2d2d2d2d2d2d2d2d2d2d2d2d2d2d2d2d2d2d2d2d2d2d2d2d2d0000000000008152506106ef565b6103a86040518060400160405280600781526020017f5761766572733a000000000000000000000000000000000000000000000000008152506106ef565b60005b600180549050811015610512576104ff6040518060400160405280600681526020017f25733a20257300000000000000000000000000000000000000000000000000008152506001838154811061042b577f4e487b7100000000000000000000000000000000000000000000000000000000600052603260045260246000fd5b9060005260206000200160009054906101000a900473ffffffffffffffffffffffffffffffffffffffff166003600060018681548110610494577f4e487b7100000000000000000000000000000000000000000000000000000000600052603260045260246000fd5b9060005260206000200160009054906101000a900473ffffffffffffffffffffffffffffffffffffffff1673ffffffffffffffffffffffffffffffffffffffff1673ffffffffffffffffffffffffffffffffffffffff16815260200190815260200160002054610827565b808061050a90610f63565b9150506103ab565b506105516040518060400160405280601a81526020017f2d2d2d2d2d2d2d2d2d2d2d2d2d2d2d2d2d2d2d2d2d2d2d2d2d2d0000000000008152506106ef565b565b60006105966040518060400160405280601681526020017f5765206861766520256420746f74616c207761766573000000000000000000008152506000546108c6565b600054905090565b60606002805480602002602001604051908101604052809291908181526020016000905b828210156106e657838290600052602060002090600302016040518060600160405290816000820160009054906101000a900473ffffffffffffffffffffffffffffffffffffffff1673ffffffffffffffffffffffffffffffffffffffff1673ffffffffffffffffffffffffffffffffffffffff16815260200160018201805461064b90610f00565b80601f016020809104026020016040519081016040528092919081815260200182805461067790610f00565b80156106c45780601f10610699576101008083540402835291602001916106c4565b820191906000526020600020905b8154815290600101906020018083116106a757829003601f168201915b50505050508152602001600282015481525050815260200190600101906105c2565b50505050905090565b610785816040516024016107039190610c80565b6040516020818303038152906040527f41304fac000000000000000000000000000000000000000000000000000000007bffffffffffffffffffffffffffffffffffffffffffffffffffffffff19166020820180517bffffffffffffffffffffffffffffffffffffffffffffffffffffffff8381831617835250505050610962565b50565b6108228383836040516024016107a093929190610ca2565b6040516020818303038152906040527fe0e9ad4f000000000000000000000000000000000000000000000000000000007bffffffffffffffffffffffffffffffffffffffffffffffffffffffff19166020820180517bffffffffffffffffffffffffffffffffffffffffffffffffffffffff8381831617835250505050610962565b505050565b6108c183838360405160240161083f93929190610ce7565b6040516020818303038152906040527f07c81217000000000000000000000000000000000000000000000000000000007bffffffffffffffffffffffffffffffffffffffffffffffffffffffff19166020820180517bffffffffffffffffffffffffffffffffffffffffffffffffffffffff8381831617835250505050610962565b505050565b61095e82826040516024016108dc929190610d25565b6040516020818303038152906040527f9710a9d0000000000000000000000000000000000000000000000000000000007bffffffffffffffffffffffffffffffffffffffffffffffffffffffff19166020820180517bffffffffffffffffffffffffffffffffffffffffffffffffffffffff8381831617835250505050610962565b5050565b60008151905060006a636f6e736f6c652e6c6f679050602083016000808483855afa5050505050565b82805461099790610f00565b90600052602060002090601f0160209004810192826109b95760008555610a00565b82601f106109d257805160ff1916838001178555610a00565b82800160010185558215610a00579182015b828111156109ff5782518255916020019190600101906109e4565b5b509050610a0d9190610a11565b5090565b5b80821115610a2a576000816000905550600101610a12565b5090565b6000610a41610a3c84610d95565b610d70565b905082815260208101848484011115610a5957600080fd5b610a64848285610ebe565b509392505050565b600082601f830112610a7d57600080fd5b8135610a8d848260208601610a2e565b91505092915050565b600060208284031215610aa857600080fd5b600082013567ffffffffffffffff811115610ac257600080fd5b610ace84828501610a6c565b91505092915050565b6000610ae38383610bf0565b905092915050565b610af481610e82565b82525050565b610b0381610e82565b82525050565b6000610b1482610dd6565b610b1e8185610df9565b935083602082028501610b3085610dc6565b8060005b85811015610b6c5784840389528151610b4d8582610ad7565b9450610b5883610dec565b925060208a01995050600181019050610b34565b50829750879550505050505092915050565b6000610b8982610de1565b610b938185610e0a565b9350610ba3818560208601610ecd565b610bac81611039565b840191505092915050565b6000610bc282610de1565b610bcc8185610e1b565b9350610bdc818560208601610ecd565b610be581611039565b840191505092915050565b6000606083016000830151610c086000860182610aeb565b5060208301518482036020860152610c208282610b7e565b9150506040830151610c356040860182610c40565b508091505092915050565b610c4981610eb4565b82525050565b610c5881610eb4565b82525050565b60006020820190508181036000830152610c788184610b09565b905092915050565b60006020820190508181036000830152610c9a8184610bb7565b905092915050565b60006060820190508181036000830152610cbc8186610bb7565b9050610ccb6020830185610afa565b8181036040830152610cdd8184610bb7565b9050949350505050565b60006060820190508181036000830152610d018186610bb7565b9050610d106020830185610afa565b610d1d6040830184610c4f565b949350505050565b60006040820190508181036000830152610d3f8185610bb7565b9050610d4e6020830184610c4f565b9392505050565b6000602082019050610d6a6000830184610c4f565b92915050565b6000610d7a610d8b565b9050610d868282610f32565b919050565b6000604051905090565b600067ffffffffffffffff821115610db057610daf61100a565b5b610db982611039565b9050602081019050919050565b6000819050602082019050919050565b600081519050919050565b600081519050919050565b6000602082019050919050565b600082825260208201905092915050565b600082825260208201905092915050565b600082825260208201905092915050565b6000610e3782610eb4565b9150610e4283610eb4565b9250827fffffffffffffffffffffffffffffffffffffffffffffffffffffffffffffffff03821115610e7757610e76610fac565b5b828201905092915050565b6000610e8d82610e94565b9050919050565b600073ffffffffffffffffffffffffffffffffffffffff82169050919050565b6000819050919050565b82818337600083830152505050565b60005b83811015610eeb578082015181840152602081019050610ed0565b83811115610efa576000848401525b50505050565b60006002820490506001821680610f1857607f821691505b60208210811415610f2c57610f2b610fdb565b5b50919050565b610f3b82611039565b810181811067ffffffffffffffff82111715610f5a57610f5961100a565b5b80604052505050565b6000610f6e82610eb4565b91507fffffffffffffffffffffffffffffffffffffffffffffffffffffffffffffffff821415610fa157610fa0610fac565b5b600182019050919050565b7f4e487b7100000000000000000000000000000000000000000000000000000000600052601160045260246000fd5b7f4e487b7100000000000000000000000000000000000000000000000000000000600052602260045260246000fd5b7f4e487b7100000000000000000000000000000000000000000000000000000000600052604160045260246000fd5b6000601f19601f830116905091905056fea26469706673582212207ea0f8a05a47f5554cba5cd377dd3dcf73f5aff0007dc5a154792edc50009a7964736f6c63430008040033",
  "linkReferences": {},
  "deployedLinkReferences": {}
}